:100000002038001023B80000CF800012CC000085FB
:1000100004180001CD80000ECD800083CC0000824A
:10002000CD800081CC00000B800000FC00000000AF
:10003000C0302003CFB1000088000000CB390000A1
:10004000CF9C0016CD80000EC9F000187F38800CC0
:100050009480FFFE00000000880000000000000007
:100060008400007C00000000800000C5000000004B
:10007000C9F800839B80000400000000800000C5D8
:1000800000000000CC1C0083840000D811B8001FC1
:10009000800000C500000000C8280003968000B45E
:1000A00000000000CD80000E2A8C01E598C00024DD
:1000B00020080001CC800003800000180000000030
:1000C00020380001CF800003C8100082CC000081DE
:1000D000C808001A9480003200000000CD80000E95
:1000E00000000000840000D120380002CC31000064
:1000F0008400000C20380001CD800081840000F3D2
:10010000200C0000800000C5000000002A8801BC0F
:100110009880FFD8000000009500FFD2000000008A
:10012000C8280002968000E120080001CD80000E62
:10013000CC8000028000001800000000C9CC0083C1
:1001400094C0009300000000840000F3200C000124
:100150008400000C203800009780008D200C000DDA
:10016000C0302009CCF10000C030200AC03418187B
:100170001374000823741818CB0D00007CF4C0061B
:10018000C808001A98800082201C000194C0FFFB60
:1001900000000000800000307DC1C006C838005655
:1001A0009B800033201C0000C83800579B80003023
:1001B000201C0001201C0000C80800819480FFD989
:1001C00000000000C82800009680FFD6200800012B
:1001D000CD80000ECC8000001C1C00002A8801BBD2
:1001E0009480FFCB00000000800000D300000000DE
:1001F0001EA800FFCE80000C880000000000000058
:10020000C830004023300040CF000040840000A6EA
:1002100020380001C83000401F3003BFCF0000402D
:1002200080000067CC000056840000100000000031
:10023000C0302008840000B92038FFFFC0302008FB
:10024000CC310000CB390000C0300398840000B9E5
:1002500020380100C0300398CC310000CB090000E9
:10026000C03021B688000000CC31000099C0FFE505
:10027000C830004023300002CF0000408400008AD4
:1002800020380003C83000401F3003FDCF0000407D
:1002900080000067CC0000568400001000000000C1
:1002A00020380001C0300398840000B913B800144E
:1002B000CC000057C0300398CC310000880000000B
:1002C000CB090000CFB10000CD80000ECB3900007B
:1002D00017B800049780FFFE0000000088000000AF
:1002E00000000000CFB10000CB3900002008001F43
:1002F0009880000008880001CC1C0016C9F0001B83
:100300009700FFFF000000008800000000000000D0
:10031000CC00000ECC00000EC8100082202801C3C3
:10032000201C0000C8100082C80800857F8B800751
:10033000C80800819480FF6700000000800000670B
:1003400000000000800000B1C03001C1CD9C0083DE
:10035000840000D8203800009500FFF10000000064
:10036000C03001C088000000CFB10000C8280004E0
:100370009680FFE90000000020080001CD80000EFB
:10038000CC8000048000001800000000840000D829
:1003900011B8001F8400000C20380001840000F315
:1003A000200C0000C03001C0CB3900002038000014
:1003B00095C0FFD9CF8000037DC1C006840000D85E
:1003C00020380000800000C5CF800003C0300390BB
:1003D000CB390000C00BFFFE7F8B800610CC0010D5
:1003E0007F8F8007CFB1000088000000CB3900006C
:1003F000C8093D36C80D3D3794C0FF3B00000000E2
:10040000C8113D38C8153D39C81D3D3AC8213D3B8E
:10041000C8253D3504A80030CE813D82CCC13D8346
:10042000CD013D84CD413D85CDC13D86CE013D8789
:1004300010880003048C0018C896003C9540FF2AE1
:10044000C8D200287D2500010954000104CC0028F1
:100450009900FFFB00000000C89200380510004022
:100460007D0AC000C8D60004C01C0004C8E2001405
:10047000C8E60024CE0A014CCE6E014C08CC000424
:10048000088800040AEC000409DC000199C0FFF8A8
:1004900000000000CD0A0160CC0A0164CD413D4757
:1004A0008000003900000000C82800019680FEFB93
:1004B0000000000020080001CD80000ECC8000016B
:1004C0008000001800000000000000000000000094
:1004D000000000000000000000000000000000001C
:1004E000000000000000000000000000000000000C
:1004F00000000000000000000000000000000000FC
:1005000000000000000000000000000000000000EB
:00000001FF
