:100000002038001023B80000CF800012CC00020579
:1000100004180001CD80000ECD800203CC00020246
:10002000CD800201CC00000BCC000208CC00020BFA
:10003000CC000209CC00020CCC000207CC00020666
:10004000CD800200C80C00401CE000802A20008007
:100050001CE401002A640100960000060000000074
:100060009A40000400000000840001E40000000049
:10007000800000F100000000C010200BC014000040
:10008000C016C000CD510000C9150000C030FFFFF0
:10009000C88E00007CF100069500013344880004FE
:1000A000C8960000CD51000014CC00107CF1000671
:1000B0009500012D44880004C8960000CD51000031
:1000C00080000024448800048400014800000000EF
:1000D00020380001C0300398840002C813B800140F
:1000E000CC000057C0300398CC31000088000000DD
:1000F000CB090000840000A911B8001F8400016032
:100100002038000184000150200C0000C03001C0E4
:10011000CB3900002038000095C0004ECF8000038E
:100120007DC1C006840000A9203800008000009432
:10013000CF800003C00821A0C88D000014CC001699
:100140001CCC000198C0FFFD0000000088000000EA
:1001500000000000840000C853B80008C030A1F4BB
:1001600023080400CC09000023080800CC09000083
:1001700023080C00CC09000023081000CC09000063
:1001800023081400CC09000023081800CC09000043
:1001900023081C00CC090000C00C21B6CC0D0000C7
:1001A000CD800200840000A92038000088000000F3
:1001B00000000000C030FFFFC88C00007CF100068A
:1001C0009500024E04880001C9150000CD480000CA
:1001D00014CC00107CF10006950002480488000150
:1001E000C9150000CD480000C82C001A9AC002436F
:1001F0007C2DC0078000006E04880001840000A9E7
:1002000011B8001F8400016020380002C0302008AF
:10021000C008FFFECCB10000CB0D0000CC310000C7
:10022000CB0D00009A40009600000000840002629E
:10023000200802108000012200000000840001F369
:10024000000000008000009400000000CC00000EC0
:10025000CC00000EC8100202202801C3201C0000A0
:10026000C8100202C80802057F8B8007C808020177
:100270009480001400000000800001F700000000DE
:100280008400004D00000000880000000000000015
:10029000CD9C0203840000A9203800009500FFEFE8
:1002A00000000000C03001C088000000CFB1000095
:1002B00020380001CF800003C8100202CC000201E8
:1002C000C808001A9480014600000000CD80000E8E
:1002D00000000000840000A911B8001F84000197ED
:1002E00020380002CC310000C808020098800004C9
:1002F000000000008400007F000000008400016016
:1003000020380001CD80020184000150200C000043
:10031000840000A920380000800000940000000044
:10032000CB8A0000C00C2181CC8D0000C00C218341
:10033000CC0D0000C028000447B80004CB8E00009C
:100340001CF400019B40FFCF47B80004CB92000093
:1003500047B80004CB9600008400019B0AA8000166
:100360009A80FFF6000000008400004DC00821A024
:10037000800000CEC0280004C83800489B80009749
:1003800053B80008880000000000000099C001F088
:10039000C830004023300002CF000040840001CB71
:1003A00020380003C83000401F3003FDCF0000405C
:1003B000800001F7CC000056CC80020788000000C6
:1003C00000000000C8093D36C80D3D3794C0FFC28B
:1003D00000000000C8113D38C8153D39C81D3D3A20
:1003E000C8213D3BC8253D3504A80030CE813D8263
:1003F000CCC13D83CD013D84CD413D85CDC13D8600
:10040000CE013D8710880003048C0018C896003C7C
:100410009540FFB1C8D200287D2500010954000194
:1004200004CC00289900FFFB00000000C8920038AF
:10043000051000407D0AC000C8D60004C01C00049E
:10044000C8E20014C8E60024CE0A014CCE6E014C6E
:1004500008CC0004088800040AEC000409DC000150
:1004600099C0FFF800000000CD0A0160CC0A0164C9
:10047000CD413D47800000B500000000C8080044A1
:100480008400001E50880008C83800489780FF4349
:10049000C83802069B80000400000000840000DED3
:1004A00000000000C83800471FB800019780000313
:1004B000C0380010CF800047C83800471FB8001070
:1004C0009B80FFFE000000008400004D0000000043
:1004D00084000160203800019A40FF1FC83800489E
:1004E000840001A2C8380207800000570000000005
:1004F00020080001CC800003C0300047C008200065
:10050000CB0D00007CC8C00698C0FFFE00000000B4
:10051000C0303D35CDB100008000009400000000E7
:10052000CF9C0016CD80000EC9F000187F38800CDB
:100530009480FFFE00000000880000000000000022
:10054000C0300390CB390000C00BFFFE7F8B8006CC
:1005500010CC00107F8F8007CFB100008800000012
:10056000CB3900008800000000000000CC1C020312
:10057000840000A911B8001F800000940000000052
:10058000C0302003CFB1000088000000CB3900004C
:10059000C030FFFFC88E00007CF1000695000032DD
:1005A00044880004C9150000CD4A000014CC001096
:1005B0007CF100069500002C44880004C915000059
:1005C000CD4A0000C82C001A9AC000277C2DC00715
:1005D0008000016544880004C808020704880001FF
:1005E000CB8E0000CCC8000047B80004048800018E
:1005F000CB8E0000CCC8000047B80004048800017E
:10060000CB8E0000CCC8000047B80004048800016D
:10061000CB8E0000CCC8000047B80004048800015D
:10062000CB8E00001CD000019500FFF3CCC8000069
:1006300088000000CCC00206840000A911B8001F89
:100640008400016020380001CC800003840000A9F0
:100650002038000080000094000000008000029D0F
:10066000C03001C18800000000000000C0082180E7
:10067000CCC90000C0082182CD090000C008218437
:1006800088000000CD490000C838020707B8000103
:10069000CB880000C00C2181CC8D0000C00C2183D0
:1006A000CC0D0000C028000407B80001CB8C00006E
:1006B0001CF400019B40009907B80001CB9000009A
:1006C00007B80001CB9400008400019B0AA8000138
:1006D0009A80FFF6000000008400004DC00821A0B1
:1006E000800001AAC0280004C828000396800105E4
:1006F00000000000CD80000E2A8C01E598C000E7C4
:10070000200800012A8C01E47CE0C00698C000703B
:1007100020080001CC8000038000008F0000000052
:100720002008000180000094CC8000038400014870
:1007300000000000C0302008840002C82038FFFFFD
:10074000C0302008CC310000CB390000C030039805
:10075000840002C820380100C0300398CC3100006A
:10076000CB090000C03021B688000000CC31000069
:10077000C82800019680FFDD00000000200800016D
:10078000CD80000ECC8000018000008F00000000B2
:10079000C838004453B8000820080210C030FFFFDA
:1007A000CB8E00007CF140069540FF04CCC80000D1
:1007B00004880001CC08000004880001CC08000077
:1007C00004880001800001E847B800041EA800FF6B
:1007D000CE80000C8800000000000000C8380056E1
:1007E0009B80FEEB201C0000C83800579B80FEE871
:1007F000201C0001C83800471FB800019780000383
:10080000C0380010CF800047201C0000C80802013B
:100810009480005700000000C82800009680005413
:1008200020080001CD80000ECC8000001C1C0000C0
:100830002A8801BB9480004900000000800000A4C9
:1008400000000000C80800445088000884000164CB
:100850000000000099C0FF792008000084000160BA
:10086000203800009780FF7520080000CC000200AF
:10087000CC000201C030218D200C0001CCF1000021
:10088000C030218E20CC3FFFCCF10000C03021B61B
:10089000C00A1400CCB10000C80800401C88020047
:1008A0009880FFA0C0300047CB1100001D0C040051
:1008B00094C0004C00000000C80C001A94C0FFFB5C
:1008C000000000008000018E00000000C9CC02037F
:1008D00094C0FF5A20080000C00C21B6C8D1000007
:1008E000C00A14007D0900069900FF54200800008A
:1008F00084000160203800029780FF50200800002B
:100900009A40FFD1000000008400006D2008021012
:1009100080000215000000008400004D000000006F
:100920008800000000000000C83802069B80000616
:10093000000000009A40000400000000840000DE77
:1009400000000000C9F802039B80FF0900000000BE
:1009500080000094000000002A8801BC9880FFF30A
:10096000000000009500FE3600000000C8280002CC
:100970009680FF8020080001CD80000ECC80000210
:100980008000008F00000000C010200BC014000089
:10099000C016C000CD510000C9150000C030FFFFD7
:1009A000C88C00007CF100069500000C0488000152
:1009B000C8940000CD51000014CC00107CF100065A
:1009C0009500000604880001C8940000CD51000085
:1009D0008000026804880001880000000000000018
:1009E0001D0C400094C0FF4FC0303DAFCB0D000048
:1009F0001CCC000294C0FF4BC0303D34CB0D000036
:100A000098C0FF0E0000000000000000C8080208A7
:100A100004880001CC800208C0303D35CC31000094
:100A2000C0303D31CDB10000C0303D34CB0D0000B1
:100A30001CC800019880FEAF1CC800029880000707
:100A4000C80C001A94C0FFFA00000000C810020988
:100A500005100001CD000209C810020B05100001AD
:100A6000CD00020BC0303D35CDB100008000018EBD
:100A700020080000CFB10000CD80000ECB3900006F
:100A800017B800041FB8000F9780FFFD000000009A
:100A90008800000000000000C9CC020394C0FD964D
:100AA0000000000084000150200C0001840001605F
:100AB000203800009780FD90200C000DC0302009E8
:100AC000CCF10000C030200AC0341818137400089C
:100AD00023741818CB0D00007CF4C006C808001A57
:100AE0009880FD85201C000194C0FFFB00000000E1
:100AF000800000AC7DC1C00688000000000000003E
:100B0000C82800049680FDD30000000020080001E2
:100B1000CD80000ECC8000048000008F000000001B
:100B2000CFB10000CB3900002008001F98800000E2
:100B300008880001CC1C0016C9F0001B9700FFFFBD
:100B4000000000008800000000000000C8300040E5
:100B500023300040CF0000408400003220380001E4
:100B6000C83000401F3003BFCF000040800001F7B5
:100B7000CC00005600000000000000000000000053
:100B80000000000000000000000000000000000065
:100B90000000000000000000000000000000000055
:100BA0000000000000000000000000000000000045
:100BB0000000000000000000000000000000000035
:100BC0000000000000000000000000000000000025
:100BD0000000000000000000000000000000000015
:100BE0000000000000000000000000000000000005
:100BF00000000000000000000000000000000000F5
:00000001FF
